:020000002B2BA8
:08000800FF00030EF7000A0ED1
:0C001000F800040EF9008A110A12122DEB
:10002000831603179201831203131E080317EF00B0
:10003000831603131E08031712078312EE0003181A
:10004000EF0A6E088316900083126F0883169100E2
:100050000800E901EA0166086A02031D3128650803
:10006000690203180800EB01EC0168086C02031D2B
:100070003B2867086B0203184128EB0A0319EC0AB6
:100080003528E90A0319EA0A2B280800E901E701E3
:10009000E801E81908000310E70DE50DE90D660811
:1000A0006902031C5528E9006714E80A492808007A
:1000B000EC01ED01E901EA01EB016B1A0800031004
:1000C000E90DEA0DE50DE60DEC0DED0D68086D028C
:1000D000031D6C2867086C02031C75286708EC0276
:1000E0006808031CED03ED026914EB0A5D280800A3
:1000F000E701E901E801E81908000310E90DE50D41
:10010000E70D66086702031C8728E7006914E80A00
:100110007B280800E901EA01EC01ED01EB016B1A13
:1001200008000310EC0DED0DE50DE60DE90DEA0DEF
:1001300068086A02031D9E2867086902031CA72835
:100140006708E9026808031CEA03EA026C14EB0A78
:100150008F280800690883120317E500831603132C
:100160006A0883120317E6000A30E700E801582006
:100170006C08E40083160313690883120317E50073
:10018000831603136A0883120317E6000A30E70098
:10019000E8018A206C0883160313EB00831203170F
:1001A000E5000A30E6004620690883160313EF00D5
:1001B0006B0883120317E5000A30E600782069080F
:1001C00083160313EB0083120317E5000A30E600E1
:1001D0004620690883160313EE006B088312031789
:1001E000E5000A30E6007820690883160313EB0067
:1001F00083120317E5000A30E600462069088316DB
:100200000313ED006B0883120317E5000A30E600C4
:100210007820690883160313EC00303E831299009E
:1002200002300317E500E601E7010130E80029206C
:10023000831603136D08303E8312990002300317B2
:10024000E500E601E7010130E800292083160313E9
:100250006E08303E8312990002300317E500E60174
:10026000E7010130E8002920831603136F08303EB0
:100270008312990002300317E500E601E70101301F
:10028000E80029206408303E031399000230031768
:10029000E500E601E7010130E80029202F300313D3
:1002A000990002300317E500E601E7010130E8009C
:1002B00029200800EB0E0F306B05EE006C086E0471
:1002C000ED00C0308312060583166D04ED00831225
:1002D000860001300317E500E6010130E700E80180
:1002E0002920203003130604860001300317E5009F
:1002F000E6010130E700E8012920831603136D08A9
:100300008312860001300317E500E6016930E7003B
:10031000E801292083160313EB0E0F306B05EE0066
:100320006C086E04ED00C030831206058316EE00E3
:100330006D086E04ED008312860001300317E5009E
:10034000E6010130E700E80129202030031306040C
:10035000860001300317E500E6010130E700E801FF
:100360002920831603136D088312860001300317BA
:10037000E500E6016930E700E80129200800643063
:1003800083120313990002300317E500E60196304B
:10039000E700E80129200800633083120313990065
:1003A00002300317E500E6019630E700E801292056
:1003B0000800623083120313990002300317E5002E
:1003C000E6019630E700E801292008006130831239
:1003D0000313990002300317E500E6019630E700A9
:1003E000E80129200800843083160313E7006730F2
:1003F000E80083121F15102010080313E5000317EF
:1004000011080313E6006508E9006608EA00AA205F
:10041000080024308316031398009030831298004C
:10042000813083169900C030870008008130831224
:1004300003139F00803083169F00FF3085008312D6
:100440009E0183169E0183128C01403083168C001E
:10045000C0308B0008006508E6006508E900EA0185
:10046000E90A0319EA0A6908660203186A08031907
:100470000800831283134D30840083166608EB0056
:1004800003106B0D84070008E700840A0008E800E9
:100490008313681883176708840080080319672A84
:1004A000831368188317670884000008EB00103076
:1004B000EC005A210130E500E601E7014030E80098
:1004C000292083160313E70A0319E80A482AE60AD3
:1004D0002D2A0800E608031D702A8030E600752AE0
:1004E000E6080319752AC030E60065086607EB00C8
:1004F000EC015A210800831603138601E50105303B
:1005000065020318902A83137230840065088407FB
:100510000008EB00EC015A2183160313E50A7F2A39
:100520000230EB00EC015A21831603138801831279
:10053000880108008430FD006730FE008316031335
:10054000E40109227B221622E501E6016A228316D4
:100550000313E5012B22E5010130E6006A22013098
:1005600083160313E5002B22223083120317E500C4
:10057000E601FF30E700E800292083160313E501B8
:10058000E6016A22023083160313E5002B22E501FF
:100590000130E6006A22033083160313E5002B22A4
:1005A000223083120317E500E601FF30E700E80080
:1005B000292083160313640AE40064030319ED2A57
:1005C0006408023A0319FB2A6408033A0319092B49
:1005D0006408043A0319172B242BE62181300313F6
:1005E0009F00F321E6216F30E500E601E7010430CA
:1005F000E8002920242BD921893003139F00F321FF
:10060000D9216F30E500E601E7010430E800292038
:10061000242BCC21913003139F00F321CC216F3088
:10062000E500E601E7010430E8002920242BBF2182
:10063000993003139F00F321BF216F30E500E601DD
:10064000E7010430E8002920053083160313640213
:100650000318E401D92A7C10FC10FA01FB011030C8
:1006600083120313A0000A30A1000430A2000A3054
:10067000A3001230A4001430A5000830A600A70182
:100680002A30A8000430A9000A30AA000230AB00CA
:100690000630AC000A30AD001230AE000230AF00C0
:1006A000B0012A30B100B2010630B3000830B40006
:1006B0000830B5000430B6000A30B7000A30B80080
:1006C0000E30B9002A30BA00BB01BC011530BD00A4
:1006D0001530BE001530BF000E30C000C101C20190
:1006E0002A30C3000F30C4000430C5000230C600F9
:1006F0000230C7000130C8001230C9000C30CA00F7
:10070000CB012A30CC003330F2003230F3002C30F1
:10071000F4000F30F5000630F6002F30E1002F30E6
:10072000E2002F30E3005030E4007230E5006F301B
:10073000E6006730E7007230E8006130E9006D30B4
:10074000EA006D30EB006530EC006430ED002F30D6
:10075000EE002F30EF002F30F000F1010030CE001E
:100760006130CD002F308316A0007330A1006530BA
:10077000A2006E30A3007330A4006F30A500723069
:10078000A6005F30A7005F30A8005F30A9004730A7
:10079000AA006130AB007330AC005F30AD00433075
:1007A000AE004F30AF00B00100308312D000A03057
:1007B000CF0047308316B1006130B2007330B30010
:1007C0004330B4006F30B5006E30B6006330B70010
:1007D0006530B8006E30B9007430BA007230BB00BA
:1007E0006130BC007430BD006930BE006F30BF00A6
:1007F0006E30C000C10100308312D200B130D10090
:100800002E308316C2002E30C3002E30C4002E308E
:10081000C5002E30C6002E30C7002E30C8002E3046
:10082000C9002E30CA002E30CB002E30CC002E3026
:10083000CD002E30CE007030CF007030D0006D3043
:10084000D100D20100308312D400C230D3002E3048
:100850008316D3002E30D4002E30D5002E30D60093
:100860002E30D7002E30D8002E30D9002E30DA00AE
:100870003D30DB003E30DC003130DD003030DE006A
:100880003030DF007030E0007030E1006D30E200A9
:10089000E30100308312D600D330D5003D3003177A
:1008A000D4003E30D5003730D6003030D7002E305F
:1008B000D8002E30D9007E30DA002E30DB002E300A
:1008C000DC003130DD003030DE003030DF007030F1
:1008D000E0007030E1006D30E200E301013003130D
:1008E000D8005430D7003D30031790003E309100BF
:1008F00032309200303093002E3094002E3095002C
:100900002E3096007E3097002E3098002E309900C1
:100910002E309A0037309B0030309C0070309D00A4
:1009200070309E006D309F00A00101300313DA008B
:100930001030D9003A300317A1003D30A2003E30FC
:10094000A3003430A4002E30A5002E30A6002E3097
:10095000A7007E30A8002E30A9002E30AA002E302D
:10096000AB003230AC003030AD007030AE007030D3
:10097000AF006D30B000B10101300313DC00213055
:10098000DB002E300317B2002E30B3003D30B40030
:100990003E30B5003130B6002E30B7002E30B800F2
:1009A0002E30B9007E30BA002E30BB002E30BC0095
:1009B0002E30BD003430BE007030BF007030C0003B
:1009C0006D30C100C20101300313DE003230DD00A2
:1009D00046300317C3007230C4006530C500733061
:1009E000C6006830C7004130C8006930C9007230A5
:1009F000CA005F30CB005830CC005430CD006F308F
:100A0000CE007830CF006930D0006330D100213083
:100A1000D200D30101300313E0004330DF008A111C
:100A20000A129A2A4030831203130C05403A031D20
:100A30001B2D0C131020790E8400780E8A00770E7F
:080A40008300FF0E7F0E090088
:00000001FF